:100000000C942A000C943F000C943F000C943F0089
:100010000C943F000C943F000C943F000C943F0064
:100020000C943F000C943F000C943F000C943F0054
:100030000C943F000C943F000C943F000C943F0044
:100040000C943F000C943F000C943F000C943F0034
:100050000C943F0011241FBECFE5D8E0DEBFCDBF1A
:1000600010E0A0E6B0E0E0E6F3E302C005900D92F8
:10007000A836B107D9F70E9458190C94AE190C9400
:100080000000EF92FF920F931F937B018C0120E001
:1000900030E040E05FE40E94ED0388238CF0C8016B
:1000A000B70120E030E040E05FE40E94B9010E9427
:1000B0004D049B01AC01205030404040504806C0E8
:1000C000C801B7010E944D049B01AC01B901CA01EE
:1000D0001F910F91FF90EF900895A0E0B0E0E3E74B
:1000E000F0E00C947719DC012B01FA019C9192301D
:1000F00008F439C1EB018881823008F433C19430AF
:1001000069F4843009F02FC111969C91119789816F
:10011000981709F428C1A0E6B0E025C1843009F49D
:1001200021C18230A9F4923009F01DC19A01AD01BC
:1001300088E0EA010990AE01E90109929E0181502F
:10014000C1F7E201898111969C918923818308C1BD
:10015000923009F407C112962D903C901397EB0151
:100160008A819B811496AD90BD90CD90DC901797BD
:10017000EC80FD800E811F819101281B390BB90194
:1001800037FF04C066277727621B730B6032710547
:100190000CF061C0121613066CF537014801062EEB
:1001A00004C096948794779467940A94D2F721E0D8
:1001B00030E040E050E004C0220F331F441F551FC1
:1001C0006A95D2F721503040404050402E213F21C7
:1001D00040235123211531054105510521F021E02E
:1001E00030E040E050E079018A01E628F72808294C
:1001F00019293CC0232BD1F1260E371E35014601AB
:10020000062E04C096948794779467940A94D2F744
:1002100021E030E040E050E004C0220F331F441FD3
:10022000551F6A95D2F721503040404050402A2156
:100230003B214C215D21211531054105510521F05E
:1002400021E030E040E050E059016A01A628B728DB
:10025000C828D9280BC0821593052CF01C01AA24AC
:10026000BB24650103C0EE24FF24870111969C91F5
:10027000D20111968C91981709F445C0992339F051
:10028000A80197012A193B094C095D0906C0A6017E
:1002900095012E193F09400B510B57FD08C01182E3
:1002A0003382228224833583468357831DC081E0B5
:1002B00081833382228288279927DC01821B930B5A
:1002C000A40BB50B84839583A683B7830DC0220F3F
:1002D000331F441F551F24833583468357838281F0
:1002E000938101979383828324813581468157814D
:1002F000DA01C9010197A109B1098F5F9F4FAF4F83
:10030000BF4328F30BC0918333822282EA0CFB1C8B
:100310000C1D1D1DE482F5820683178383E0808314
:10032000248135814681578157FF1AC0C901AA2708
:1003300097FDA095BA2F81709070A070B0705695FF
:10034000479537952795822B932BA42BB52B848328
:100350009583A683B7838281938101969383828359
:10036000DF0101C0D201CD01CDB7DEB7E2E10C94CF
:100370009319A0E2B0E0EFEBF1E00C9483196983EC
:100380007A838B839C832D833E834F835887E9E058
:10039000EE2EF12CEC0EFD1ECE010196B7010E944F
:1003A00076058E010F5E1F4FCE010596B8010E94A3
:1003B00076058A8991E089278A8BC701B801AE0149
:1003C000475E5F4F0E946D000E94A104A096E6E088
:1003D0000C949F19A0E2B0E0E0EFF1E00C948319D7
:1003E00069837A838B839C832D833E834F835887D5
:1003F000F9E0EF2EF12CEC0EFD1ECE010196B701B7
:100400000E9476058E010F5E1F4FCE010596B80142
:100410000E947605C701B801AE01475E5F4F0E949A
:100420006D000E94A104A096E6E00C949F19A0E242
:10043000B0E0EDE1F2E00C94771969837A838B8365
:100440009C832D833E834F835887CE010196BE0146
:10045000675F7F4F0E947605CE010596BE016F5EF5
:100460007F4F0E9476059985923088F08989823085
:10047000C8F0943019F4823051F404C0843029F467
:10048000923081F480E690E0C6C0923049F420E0DA
:100490009A858A89981321E02A87CE010996BBC0E4
:1004A000823049F420E09A858A89981321E02A8BCA
:1004B000CE014196B0C02D843E844F8458886D880B
:1004C0007E888F88988CEE24FF248701AA24BB2481
:1004D000650140E050E060E070E0E0E0F0E0C10184
:1004E00081709070892BE9F0E60CF71C081D191D2E
:1004F0009A01AB012A0D3B1D4C1D5D1D80E090E073
:10050000A0E0B0E0E614F7040805190520F481E046
:1005100090E0A0E0B0E0BA01A901480F591F6A1F9E
:100520007B1FAA0CBB1CCC1CDD1C97FE08C081E005
:1005300090E0A0E0B0E0A82AB92ACA2ADB2A3196C6
:10054000E032F10549F0660C771C881C991C569422
:10055000479437942794C3CFFA85EA892B893C893D
:100560008B859C85280F391F2E5F3F4F17C0CA010E
:1005700081709070892B61F016950795F794E79438
:1005800080E090E0A0E0B0E8E82AF92A0A2B1B2BD3
:1005900076956795579547952F5F3F4F77FDE7CF46
:1005A0000CC0440F551F661F771F17FD4160EE0CEE
:1005B000FF1C001F111F21503040403090E05907B0
:1005C00090E0690790E4790760F32B8F3C8FDB01A3
:1005D000CA018F779070A070B07080349105A1052A
:1005E000B10561F447FD0AC0E114F10401051105EC
:1005F00029F0405C5F4F6F4F7F4F40781A8EFE1797
:1006000011F081E08A8F4D8F5E8F6F8F78A383E02A
:10061000898FCE0149960E94A104A096E2E10C9434
:100620009319A8E1B0E0E7E1F3E00C947F19698346
:100630007A838B839C832D833E834F835887B9E0D5
:10064000EB2EF12CEC0EFD1ECE010196B7010E949F
:1006500076058E010F5E1F4FCE010596B8010E94F0
:1006600076052985223008F47EC03989323010F4AD
:10067000B8017CC08A859A8989278A87243011F03D
:10068000223031F4231709F06EC060E670E06EC0CE
:10069000343039F41D861E861F86188A1C861B86F8
:1006A00004C0323021F484E08987B7015FC02B8514
:1006B0003C858B899C89281B390B3C872B87ED84D3
:1006C000FE840F851889AD88BE88CF88D88CEA143F
:1006D000FB040C051D0540F4EE0CFF1C001F111F50
:1006E000215030403C872B8720E030E040E050E054
:1006F00080E090E0A0E0B0E460E070E0EA14FB0489
:100700000C051D0540F0282B392B4A2B5B2BEA18D2
:10071000FB080C091D09B695A79597958795EE0CD2
:10072000FF1C001F111F6F5F7F4F6F31710531F785
:10073000DA01C9018F779070A070B0708034910594
:10074000A105B10561F427FD0AC0E114F10401051A
:10075000110529F0205C3F4F4F4F5F4F20782D87C8
:100760003E874F87588BBE01675F7F4FCB010E944A
:10077000A1046896EAE00C949B19A8E1B0E0E3ECD0
:10078000F3E00C94831969837A838B839C832D8394
:100790003E834F83588789E0E82EF12CEC0EFD1E36
:1007A000CE010196B7010E9476058E010F5E1F4FA4
:1007B000CE010596B8010E9476058985823040F009
:1007C0008989823028F0C701B8010E94EE0501C076
:1007D0008FEF6896E6E00C949F19A8E1B0E0E3EF94
:1007E000F3E00C94831969837A838B839C832D8334
:1007F0003E834F83588789E0E82EF12CEC0EFD1ED6
:10080000CE010196B7010E9476058E010F5E1F4F43
:10081000CE010596B8010E9476058985823040F0A8
:100820008989823028F0C701B8010E94EE0501C015
:100830008FEF6896E6E00C949F19A8E1B0E0E3E240
:10084000F4E00C94831969837A838B839C832D83D2
:100850003E834F83588789E0E82EF12CEC0EFD1E75
:10086000CE010196B7010E9476058E010F5E1F4FE3
:10087000CE010596B8010E9476058985823040F048
:100880008989823028F0C701B8010E94EE0501C0B5
:1008900081E06896E6E00C949F19ACE0B0E0E3E5F7
:1008A000F4E00C94871969837A838B839C83CE014F
:1008B0000196BE016B5F7F4F0E9476058D8182306D
:1008C00061F1823050F1843021F48E81882351F11E
:1008D0002EC02F81388537FD20C06E812F31310524
:1008E0001CF06623F9F023C08EE190E0821B930B8D
:1008F00029853A854B855C8504C056954795379583
:1009000027958A95D2F76623B1F05095409530959A
:1009100021953F4F4F4F5F4F0EC020E030E040E049
:1009200050E009C02FEF3FEF4FEF5FE704C020E03A
:1009300030E040E050E8B901CA012C96E2E00C94A6
:10094000A319DF92EF92FF920F931F93FC01E480B3
:10095000F58006811781D1808081823048F480E063
:1009600090E0A0E1B0E0E82AF92A0A2B1B2BA5C0F1
:10097000843009F49FC0823021F4EE24FF248701E3
:1009800005C0E114F1040105110519F4E0E0F0E0FF
:1009900096C0628173819FEF623879070CF05BC06B
:1009A00022E83FEF261B370B2A3131052CF020E0DF
:1009B00030E040E050E02AC0B801A701022E04C098
:1009C00076956795579547950A94D2F781E090E020
:1009D000A0E0B0E004C0880F991FAA1FBB1F2A9592
:1009E000D2F70197A109B1098E219F21A023B1233C
:1009F0000097A105B10521F081E090E0A0E0B0E012
:100A00009A01AB01282B392B4A2B5B2BDA01C90148
:100A10008F779070A070B07080349105A105B105FA
:100A200039F427FF09C0205C3F4F4F4F5F4F04C090
:100A3000215C3F4F4F4F5F4FE0E0F0E02030A0E0FF
:100A40003A07A0E04A07A0E45A0710F0E1E0F0E01E
:100A500079018A0127C06038710564F5FB01E1580E
:100A6000FF4FD801C7018F779070A070B0708034AD
:100A70009105A105B10539F4E7FE0DC080E490E0D1
:100A8000A0E0B0E004C08FE390E0A0E0B0E0E80EAA
:100A9000F91E0A1F1B1F17FF05C016950795F7942F
:100AA000E794319687E016950795F794E7948A9531
:100AB000D1F705C0EE24FF248701EFEFF0E06E2FA1
:100AC000679566276795902F9F77D794DD24D794F5
:100AD0008E2F8695492F462B582F5D29B701CA01C5
:100AE0001F910F91FF90EF90DF900895FC01DB01C3
:100AF000408151812281622F6F7770E0221F22276F
:100B0000221F9381892F880F822B282F30E0991F75
:100B10009927991F11969C93119721153105A9F5D5
:100B2000411551056105710511F482E037C082E875
:100B30009FEF13969C938E9312979A01AB0167E0F7
:100B4000220F331F441F551F6A95D1F783E08C9302
:100B50000DC0220F331F441F551F12968D919C917B
:100B60001397019713969C938E931297203080E0F1
:100B7000380780E0480780E4580758F314962D930F
:100B80003D934D935C93179708952F3F310579F46A
:100B9000411551056105710519F484E08C930895A0
:100BA00064FF03C081E08C9312C01C9210C02F57C9
:100BB000304013963C932E93129783E08C9387E0FA
:100BC000440F551F661F771F8A95D1F770641496DE
:100BD0004D935D936D937C93179708951F93DC015C
:100BE000FB019C91923008F447C08081823008F468
:100BF00043C0943051F411961C91843099F5818151
:100C0000682F70E0611B71093FC0843021F0923081
:100C100031F48230B9F18181882389F12DC0119698
:100C20001C9111978230F1F081811817D9F4129636
:100C30002D913C911397828193818217930794F0B1
:100C400028173907BCF014968D919D910D90BC9199
:100C5000A02D2481358146815781281739074A07FD
:100C60005B0718F4112341F00AC082179307A40709
:100C7000B50740F4112319F061E070E005C06FEF93
:100C80007FEF02C060E070E0CB011F910895DF9319
:100C9000CF93CDB7DEB7E9970FB6F894DEBF0FBE9E
:100CA000CDBF89AF80E063E040E00E94761580E030
:100CB00062E041E00E94761589AD82958F70982F91
:100CC000917081E060E0492F0E94761589AD829590
:100CD00086958770982F917081E061E0492F0E947E
:100CE000761589AD8295869586958370982F91703B
:100CF00081E062E0492F0E94761589AD982F991FF7
:100D00009927991F81E064E0492F0E94761580E0C1
:100D100062E041E00E94761580E090E0A0E8BFE349
:100D20008DAB9EABAFABB8AF6DA97EA98FA998ADC7
:100D300020E030E04AEF54E40E941702DC01CB01CE
:100D400089AB9AABABABBCAB69A97AA98BA99CA9BF
:100D500020E030E040E85FE30E941D0488232CF48B
:100D600081E090E098AB8FA73FC069A97AA98BA9D1
:100D70009CA920E03FEF4FE757E40E94BD031816FF
:100D80004CF56DA97EA98FA998AD20E030E040E236
:100D900051E40E941702DC01CB01BC01CD010E948D
:100DA0004100DC01CB0198AB8FA70FC088EC90E02D
:100DB0009EA78DA78DA59EA50197F1F79EA78DA74C
:100DC0008FA598A9019798AB8FA78FA598A9009791
:100DD00069F714C069A97AA98BA99CA90E9441004E
:100DE000DC01CB0198AB8FA78FA598A99CA78BA7F7
:100DF0008BA59CA50197F1F79CA78BA780E062E0EB
:100E000040E00E94761580E090E0A0E8BFE38FA369
:100E100098A7A9A7BAA76FA178A589A59AA520E048
:100E200030E04AEF54E40E941702DC01CB018BA3AF
:100E30009CA3ADA3BEA36BA17CA18DA19EA120E02C
:100E400030E040E85FE30E941D0488232CF481E039
:100E500090E09AA389A33FC06BA17CA18DA19EA124
:100E600020E03FEF4FE757E40E94BD0318164CF512
:100E70006FA178A589A59AA520E030E040E251E471
:100E80000E941702DC01CB01BC01CD010E94410090
:100E9000DC01CB019AA389A30FC088EC90E098A352
:100EA0008F8F8F8D98A10197F1F798A38F8F89A1CC
:100EB0009AA101979AA389A389A19AA1009769F79A
:100EC00014C06BA17CA18DA19EA10E944100DC01F8
:100ED000CB019AA389A389A19AA19E8F8D8F8D8D15
:100EE0009E8D0197F1F79E8F8D8F89AD982F917010
:100EF00081E060E0492F0E94761589AD8695982F94
:100F0000917081E061E0492F0E94761589AD869548
:100F10008695982F917081E062E0492F0E947615A6
:100F200089AD869586958695982F917081E064E0CD
:100F3000492F0E94761580E062E041E00E9476151C
:100F400080E090E0A0E8BFE3898F9A8FAB8FBC8FE1
:100F5000698D7A8D8B8D9C8D20E030E04AEF54E4D2
:100F60000E941702DC01CB018D8B9E8BAF8BB88F5B
:100F70006D897E898F89988D20E030E040E85FE3BD
:100F80000E941D0488232CF481E090E09C8B8B8BC5
:100F90003FC06D897E898F89988D20E03FEF4FE7B4
:100FA00057E40E94BD0318164CF5698D7A8D8B8D20
:100FB0009C8D20E030E040E251E40E941702DC0109
:100FC000CB01BC01CD010E944100DC01CB019C8B17
:100FD0008B8B0FC088EC90E09A8B898B89899A89DA
:100FE0000197F1F79A8B898B8B899C8901979C8B50
:100FF0008B8B8B899C89009769F714C06D897E89DA
:101000008F89988D0E944100DC01CB019C8B8B8BDA
:101010008B899C89988B8F878F8598890197F1F7A9
:10102000988B8F8780E062E040E00E94761580E038
:1010300090E0A0E8BFE38B879C87AD87BE876B8578
:101040007C858D859E8520E030E04AEF54E40E9447
:101050001702DC01CB018F839887A987BA876F813C
:10106000788589859A8520E030E040E85FE30E943A
:101070001D0488232CF481E090E09E838D833FC083
:101080006F81788589859A8520E03FEF4FE757E4A7
:101090000E94BD0318164CF56B857C858D859E8559
:1010A00020E030E040E251E40E941702DC01CB0175
:1010B000BC01CD010E944100DC01CB019E838D83E8
:1010C0000FC088EC90E09C838B838B819C8101977F
:1010D000F1F79C838B838D819E8101979E838D8305
:1010E0008D819E81009769F714C06F81788589850D
:1010F0009A850E944100DC01CB019E838D838D8106
:101100009E819A83898389819A810197F1F79A83D5
:101110008983E9960FB6F894DEBF0FBECDBFCF919D
:10112000DF910895DF93CF93CDB7DEB7E9970FB680
:10113000F894DEBF0FBECDBF89AF80E063E041E031
:101140000E94761589AD82958F70982F917081E0FD
:1011500060E0492F0E94761589AD8295869587704B
:10116000982F917081E061E0492F0E94761589AD3A
:101170008295869586958370982F917081E062E0C4
:10118000492F0E94761589AD982F991F9927991F8D
:1011900081E064E0492F0E94761580E062E041E042
:1011A0000E94761580E090E0A0E8BFE38DAB9EAB97
:1011B000AFABB8AF6DA97EA98FA998AD20E030E0A4
:1011C0004AEF54E40E941702DC01CB0189AB9AABD1
:1011D000ABABBCAB69A97AA98BA99CA920E030E094
:1011E00040E85FE30E941D0488232CF481E090E036
:1011F00098AB8FA73FC069A97AA98BA99CA920E0C9
:101200003FEF4FE757E40E94BD0318164CF56DA958
:101210007EA98FA998AD20E030E040E251E40E9421
:101220001702DC01CB01BC01CD010E944100DC01B1
:10123000CB0198AB8FA70FC088EC90E09EA78DA73D
:101240008DA59EA50197F1F79EA78DA78FA598A9BB
:10125000019798AB8FA78FA598A9009769F714C03D
:1012600069A97AA98BA99CA90E944100DC01CB0144
:1012700098AB8FA78FA598A99CA78BA78BA59CA59A
:101280000197F1F79CA78BA780E062E040E00E9405
:10129000761580E090E0A0E8BFE38FA398A7A9A708
:1012A000BAA76FA178A589A59AA520E030E04AEFFA
:1012B00054E40E941702DC01CB018BA39CA3ADA3D5
:1012C000BEA36BA17CA18DA19EA120E030E040E8EF
:1012D0005FE30E941D0488232CF481E090E09AA330
:1012E00089A33FC06BA17CA18DA19EA120E03FEF0F
:1012F0004FE757E40E94BD0318164CF56FA178A57F
:1013000089A59AA520E030E040E251E40E9417024E
:10131000DC01CB01BC01CD010E944100DC01CB010D
:101320009AA389A30FC088EC90E098A38F8F8F8D2C
:1013300098A10197F1F798A38F8F89A19AA101979E
:101340009AA389A389A19AA1009769F714C06BA1F8
:101350007CA18DA19EA10E944100DC01CB019AA33A
:1013600089A389A19AA19E8F8D8F8D8D9E8D0197C6
:10137000F1F79E8F8D8F89AD982F917081E060E09D
:10138000492F0E94761589AD8695982F917081E03E
:1013900061E0492F0E94761589AD86958695982F34
:1013A000917081E062E0492F0E94761589AD8695A3
:1013B00086958695982F917081E064E0492F0E9470
:1013C000761580E062E041E00E94761580E090E0D2
:1013D000A0E8BFE3898F9A8FAB8FBC8F698D7A8D20
:1013E0008B8D9C8D20E030E04AEF54E40E94170280
:1013F000DC01CB018D8B9E8BAF8BB88F6D897E8985
:101400008F89988D20E030E040E85FE30E941D0462
:1014100088232CF481E090E09C8B8B8B3FC06D89FE
:101420007E898F89988D20E03FEF4FE757E40E9437
:10143000BD0318164CF5698D7A8D8B8D9C8D20E03F
:1014400030E040E251E40E941702DC01CB01BC0114
:10145000CD010E944100DC01CB019C8B8B8B0FC026
:1014600088EC90E09A8B898B89899A890197F1F7AA
:101470009A8B898B8B899C8901979C8B8B8B8B8911
:101480009C89009769F714C06D897E898F89988D32
:101490000E944100DC01CB019C8B8B8B8B899C894A
:1014A000988B8F878F8598890197F1F7988B8F8715
:1014B00080E062E040E00E94761580E090E0A0E8E5
:1014C000BFE38B879C87AD87BE876B857C858D85C9
:1014D0009E8520E030E04AEF54E40E941702DC01D0
:1014E000CB018F839887A987BA876F817885898593
:1014F0009A8520E030E040E85FE30E941D048823E5
:101500002CF481E090E09E838D833FC06F817885CD
:1015100089859A8520E03FEF4FE757E40E94BD039D
:1015200018164CF56B857C858D859E8520E030E016
:1015300040E251E40E941702DC01CB01BC01CD0165
:101540000E944100DC01CB019E838D830FC088EC9B
:1015500090E09C838B838B819C810197F1F79C8326
:101560008B838D819E8101979E838D838D819E814A
:10157000009769F714C06F81788589859A850E94E4
:101580004100DC01CB019E838D838D819E819A83F6
:10159000898389819A810197F1F79A838983E996F2
:1015A0000FB6F894DEBF0FBECDBFCF91DF91089587
:1015B0000F931F93DF93CF93CDB7DEB7C45CD040BA
:1015C0000FB6F894DEBF0FBECDBF81E06FEF0E9473
:1015D000001880E062E041E00E94721480E063E065
:1015E00041E00E947214FE01EF53FF4F80E090E053
:1015F000A0EFB1E480839183A283B3838E0103546F
:101600001F4FFE01EF53FF4F6081718182819381F3
:1016100020E030E04AEF54E40E941702DC01CB01E5
:10162000F80180839183A283B383FE01E354FF4FCB
:10163000608171818281938120E030E040E85FE346
:101640000E941D04882344F4FE01E554FF4F81E00D
:1016500090E09183808364C0FE01E354FF4F60817A
:1016600071818281938120E03FEF4FE757E40E9430
:10167000BD0318160CF043C0FE01EF53FF4F60810D
:1016800071818281938120E030E040E251E40E9448
:101690001702DC01CB018E0105541F4FBC01CD01A7
:1016A0000E944100DC01CB01F801918380831FC0BF
:1016B000FE01E754FF4F88EC90E091838083FE01A8
:1016C000E754FF4F808191810197F1F7FE01E754C4
:1016D000FF4F91838083DE01A554BF4FFE01E55487
:1016E000FF4F80819181019711969C938E93FE010B
:1016F000E554FF4F808191810097D1F627C08E017C
:1017000005541F4FFE01E354FF4F608171818281B8
:1017100093810E944100DC01CB01F8019183808319
:10172000DE01A954BF4FFE01E554FF4F8081918136
:101730008D939C93FE01E954FF4F80819181019725
:10174000F1F7FE01E954FF4F9183808388E30E9403
:101750004706FE01ED54FF4F80E090E0A0EAB0E4C0
:1017600080839183A283B3838E0101551F4FFE01B5
:10177000ED54FF4F608171818281938120E030E0E0
:101780004AEF54E40E941702DC01CB01F801808388
:101790009183A283B383FE01E155FF4F6081718184
:1017A0008281938120E030E040E85FE30E941D04E5
:1017B000882344F4FE01E355FF4F81E090E09183DC
:1017C000808364C0FE01E155FF4F60817181828199
:1017D000938120E03FEF4FE757E40E94BD031816C6
:1017E0000CF043C0FE01ED54FF4F60817181828196
:1017F000938120E030E040E251E40E941702DC01D6
:10180000CB018E0103551F4FBC01CD010E94410049
:10181000DC01CB01F801918380831FC0FE01E555F7
:10182000FF4F88EC90E091838083FE01E555FF4FE8
:10183000808191810197F1F7FE01E555FF4F91837A
:101840008083DE01A355BF4FFE01E355FF4F80812A
:101850009181019711969C938E93FE01E355FF4F62
:10186000808191810097D1F627C08E0103551F4FCB
:10187000FE01E155FF4F60817181828193810E9459
:101880004100DC01CB01F80191838083DE01A75583
:10189000BF4FFE01E355FF4F808191818D939C9353
:1018A000FE01E755FF4F808191810197F1F7FE011D
:1018B000E755FF4F9183808388E30E944706FE012E
:1018C000EB55FF4F80E090E0A6E1B3E48083918385
:1018D000A283B3838E010F551F4FFE01EB55FF4FBF
:1018E00060817181828193812BEA3AEA4AE250E475
:1018F0000E941702DC01CB01F80180839183A2834F
:10190000B383FE01EF55FF4F608171818281938126
:1019100020E030E040E85FE30E941D04882334F4B7
:10192000FE01E056FF4F81E08083E0C0FE01EF55ED
:10193000FF4F608171818281938120E030E04FE729
:1019400053E40E94BD0318160CF0C0C0FE01EB5515
:10195000FF4F608171818281938120E030E04AE70E
:1019600054E40E941103DC01CB01FE01E456FF4F59
:1019700080839183A283B3838E0108561F4FFE019B
:10198000E456FF4F608171818281938120E030E0D5
:101990004AEF54E40E941702DC01CB01F801808376
:1019A0009183A283B383FE01E856FF4F608171816A
:1019B0008281938120E030E040E85FE30E941D04D3
:1019C000882344F4FE01EA56FF4F81E090E09183C2
:1019D000808364C0FE01E856FF4F6081718182817F
:1019E000938120E03FEF4FE757E40E94BD031816B4
:1019F0000CF043C0FE01E456FF4F6081718182818B
:101A0000938120E030E040E251E40E941702DC01C3
:101A1000CB018E010A561F4FBC01CD010E9441002F
:101A2000DC01CB01F801918380831FC0FE01EC56DD
:101A3000FF4F88EC90E091838083FE01EC56FF4FCE
:101A4000808191810197F1F7FE01EC56FF4F918360
:101A50008083DE01AA56BF4FFE01EA56FF4F808108
:101A60009181019711969C938E93FE01EA56FF4F48
:101A7000808191810097D1F64BC08E010A561F4F8D
:101A8000FE01E856FF4F60817181828193810E943F
:101A90004100DC01CB01F80191838083DE01AE5669
:101AA000BF4FFE01EA56FF4F8081918111969C93B2
:101AB0008E93FE01EE56FF4F808191810197F1F7E1
:101AC000FE01EE56FF4F9183808322C08E010056A7
:101AD0001F4FFE01EF55FF4F60817181828193811D
:101AE0000E944100DC01CB01F8018083DE01AF568A
:101AF000BF4FFE01E056FF4F80818C93FE01EF56F1
:101B0000FF4F80818A95F1F7FE01EF56FF4F8083EA
:101B100088E30E944706FE01E357FF4F80E090E014
:101B2000A6E1B3E480839183A283B3838E01075738
:101B30001F4FFE01E357FF4F6081718182819381C6
:101B40002BEA3AEA4AE250E40E941702DC01CB0198
:101B5000F80180839183A283B383FE01E757FF4F8F
:101B6000608171818281938120E030E040E85FE311
:101B70000E941D04882334F4FE01E857FF4F81E0E2
:101B80008083E0C0FE01E757FF4F60817181828151
:101B9000938120E030E04FE753E40E94BD03181624
:101BA0000CF0C0C0FE01E357FF4F6081718182815C
:101BB000938120E030E04AE754E40E941103DC0105
:101BC000CB01FE01EC57FF4F80839183A283B38347
:101BD0008E0100581F4FFE01EC57FF4F608171814D
:101BE0008281938120E030E04AEF54E40E941702A2
:101BF000DC01CB01F80180839183A283B383FE01D2
:101C0000E058FF4F608171818281938120E030E054
:101C100040E85FE30E941D04882344F4FE01E2587B
:101C2000FF4F81E090E09183808364C0FE01E05823
:101C3000FF4F608171818281938120E03FEF4FE708
:101C400057E40E94BD0318160CF043C0FE01EC5788
:101C5000FF4F608171818281938120E030E040E21A
:101C600051E40E941702DC01CB018E0102581F4F84
:101C7000BC01CD010E944100DC01CB01F801918340
:101C800080831FC0FE01E458FF4F88EC90E09183F1
:101C90008083FE01E458FF4F808191810197F1F725
:101CA000FE01E458FF4F91838083DE01A258BF4FAD
:101CB000FE01E258FF4F80819181019711969C931C
:101CC0008E93FE01E258FF4F808191810097D1F6FB
:101CD0004BC08E0102581F4FFE01E058FF4F60813C
:101CE0007181828193810E944100DC01CB01F80166
:101CF00091838083DE01A658BF4FFE01E258FF4F5B
:101D00008081918111969C938E93FE01E658FF4F3E
:101D1000808191810197F1F7FE01E658FF4F918391
:101D2000808322C08E0108571F4FFE01E757FF4FE7
:101D300060817181828193810E944100DC01CB012D
:101D4000F8018083DE01A758BF4FFE01E857FF4F1F
:101D500080818C93FE01E758FF4F80818A95F1F7CF
:101D6000FE01E758FF4F808381E00E944706FE0195
:101D7000EB58FF4F80E090E0A6E1B3E480839183CD
:101D8000A283B3838E010F581F4FFE01EB58FF4F04
:101D900060817181828193812BEA3AEA4AE250E4C0
:101DA0000E941702DC01CB01F80180839183A2839A
:101DB000B383FE01EF58FF4F60817181828193816F
:101DC00020E030E040E85FE30E941D04882334F403
:101DD000FE01E059FF4F81E08083E0C0FE01EF5833
:101DE000FF4F608171818281938120E030E04FE775
:101DF00053E40E94BD0318160CF0C0C0FE01EB585E
:101E0000FF4F608171818281938120E030E04AE759
:101E100054E40E941103DC01CB01FE01E459FF4FA1
:101E200080839183A283B3838E0108591F4FFE01E3
:101E3000E459FF4F608171818281938120E030E01D
:101E40004AEF54E40E941702DC01CB01F8018083C1
:101E50009183A283B383FE01E859FF4F60817181B2
:101E60008281938120E030E040E85FE30E941D041E
:101E7000882344F4FE01EA59FF4F81E090E091830A
:101E8000808364C0FE01E859FF4F608171818281C7
:101E9000938120E03FEF4FE757E40E94BD031816FF
:101EA0000CF043C0FE01E459FF4F608171818281D3
:101EB000938120E030E040E251E40E941702DC010F
:101EC000CB018E010A591F4FBC01CD010E94410078
:101ED000DC01CB01F801918380831FC0FE01EC5926
:101EE000FF4F88EC90E091838083FE01EC59FF4F17
:101EF000808191810197F1F7FE01EC59FF4F9183A9
:101F00008083DE01AA59BF4FFE01EA59FF4F80814D
:101F10009181019711969C938E93FE01EA59FF4F90
:101F2000808191810097D1F64BC08E010A591F4FD5
:101F3000FE01E859FF4F60817181828193810E9487
:101F40004100DC01CB01F80191838083DE01AE59B1
:101F5000BF4FFE01EA59FF4F8081918111969C93FA
:101F60008E93FE01EE59FF4F808191810197F1F729
:101F7000FE01EE59FF4F9183808322C08E010059EC
:101F80001F4FFE01EF58FF4F608171818281938165
:101F90000E944100DC01CB01F8018083DE01AF59D2
:101FA000BF4FFE01E059FF4F80818C93FE01EF5936
:101FB000FF4F80818A95F1F7FE01EF59FF4F808333
:101FC00082E00E944706FE01E35AFF4F80E090E066
:101FD000A6E1B3E480839183A283B3838E01075A81
:101FE0001F4FFE01E35AFF4F60817181828193810F
:101FF0002BEA3AEA4AE250E40E941702DC01CB01E4
:10200000F80180839183A283B383FE01E75AFF4FD7
:10201000608171818281938120E030E040E85FE35C
:102020000E941D04882334F4FE01E85AFF4F81E02A
:102030008083E0C0FE01E75AFF4F60817181828199
:10204000938120E030E04FE753E40E94BD0318166F
:102050000CF0C0C0FE01E35AFF4F608171818281A4
:10206000938120E030E04AE754E40E941103DC0150
:10207000CB01FE01EC5AFF4F80839183A283B3838F
:102080008E01005B1F4FFE01EC5AFF4F6081718192
:102090008281938120E030E04AEF54E40E941702ED
:1020A000DC01CB01F80180839183A283B383FE011D
:1020B000E05BFF4F608171818281938120E030E09D
:1020C00040E85FE30E941D04882344F4FE01E25BC4
:1020D000FF4F81E090E09183808364C0FE01E05B6C
:1020E000FF4F608171818281938120E03FEF4FE754
:1020F00057E40E94BD0318160CF043C0FE01EC5AD1
:10210000FF4F608171818281938120E030E040E265
:1021100051E40E941702DC01CB018E01025B1F4FCC
:10212000BC01CD010E944100DC01CB01F80191838B
:1021300080831FC0FE01E45BFF4F88EC90E0918339
:102140008083FE01E45BFF4F808191810197F1F76D
:10215000FE01E45BFF4F91838083DE01A25BBF4FF2
:10216000FE01E25BFF4F80819181019711969C9364
:102170008E93FE01E25BFF4F808191810097D1F643
:102180004BC08E01025B1F4FFE01E05BFF4F608181
:102190007181828193810E944100DC01CB01F801B1
:1021A00091838083DE01A65BBF4FFE01E25BFF4FA0
:1021B0008081918111969C938E93FE01E65BFF4F87
:1021C000808191810197F1F7FE01E65BFF4F9183DA
:1021D000808322C08E01085A1F4FFE01E75AFF4F2D
:1021E00060817181828193810E944100DC01CB0179
:1021F000F8018083DE01A75BBF4FFE01E85AFF4F65
:1022000080818C93FE01E75BFF4F80818A95F1F717
:10221000FE01E75BFF4F808386E00E944706FE01D8
:10222000EB5BFF4F80E090E0A6E1B3E48083918315
:10223000A283B3838E010F5B1F4FFE01EB5BFF4F49
:1022400060817181828193812BEA3AEA4AE250E40B
:102250000E941702DC01CB01F80180839183A283E5
:10226000B383FE01EF5BFF4F6081718182819381B7
:1022700020E030E040E85FE30E941D04882334F44E
:1022800081E0FE01E05CFF4F80839DC0FE01EF5BBB
:10229000FF4F608171818281938120E030E04FE7C0
:1022A00053E40E94BD0318160CF07EC0FE01EB5BE8
:1022B000FF4F608171818281938120E030E04AE7A5
:1022C00054E40E941103DC01CB018CAF9DAFAEAF93
:1022D000BFAF6CAD7DAD8EAD9FAD20E030E04AEF7D
:1022E00054E40E941702DC01CB0188AF99AFAAAF7A
:1022F000BBAF68AD79AD8AAD9BAD20E030E040E882
:102300005FE30E941D0488232CF481E090E09FABE2
:102310008EAB3FC068AD79AD8AAD9BAD20E03FEF9D
:102320004FE757E40E94BD0318164CF56CAD7DAD28
:102330008EAD9FAD20E030E040E251E40E941702F4
:10234000DC01CB01BC01CD010E944100DC01CB01CD
:102350009FAB8EAB0FC088EC90E09DAB8CAB8CA993
:102360009DA90197F1F79DAB8CAB8EA99FA9019711
:102370009FAB8EAB8EA99FA9009769F72DC068AD62
:1023800079AD8AAD9BAD0E944100DC01CB019FABD2
:102390008EAB8EA99FA99BAB8AAB8AA99BA90197FB
:1023A000F1F79BAB8AAB18C0FE01EF5BFF4F60817A
:1023B0007181828193810E944100DC01CB01FE0189
:1023C000E05CFF4F8083FE01E05CFF4F808189ABC2
:1023D00089A98A95F1F789AB8DE00E94470680E0D4
:1023E00090E0A6E1B3E48DA79EA7AFA7B8AB6DA51B
:1023F0007EA58FA598A92BEA3AEA4AE250E40E940A
:102400001702DC01CB0189A79AA7ABA7BCA769A5D6
:102410007AA58BA59CA520E030E040E85FE30E9410
:102420001D0488231CF481E088A791C069A57AA5C2
:102430008BA59CA520E030E04FE753E40E94BD034C
:1024400018160CF07BC06DA57EA58FA598A920E07D
:1024500030E04AE754E40E941103DC01CB018CA375
:102460009DA3AEA3BFA36CA17DA18EA19FA120E0DF
:1024700030E04AEF54E40E941702DC01CB0188A34C
:1024800099A3AAA3BBA368A179A18AA19BA120E0DB
:1024900030E040E85FE30E941D0488232CF481E0D3
:1024A00090E09F8F8E8F3FC068A179A18AA19BA1E8
:1024B00020E03FEF4FE757E40E94BD0318164CF5AC
:1024C0006CA17DA18EA19FA120E030E040E251E40B
:1024D0000E941702DC01CB01BC01CD010E9441002A
:1024E000DC01CB019F8F8E8F0FC088EC90E09D8F19
:1024F0008C8F8C8D9D8D0197F1F79D8F8C8F8E8D9C
:102500009F8D01979F8F8E8F8E8D9F8D009769F77E
:1025100024C068A179A18AA19BA10E944100DC018D
:10252000CB019F8F8E8F8E8D9F8D9B8F8A8F8A8DF3
:102530009B8D0197F1F79B8F8A8F0FC069A57AA5B4
:102540008BA59CA50E944100DC01CB0188A788A532
:10255000898F898D8A95F1F7898F81E00E944706DE
:1025600080E090E0A6E1B3E48D8B9E8BAF8BB88FBB
:102570006D897E898F89988D2BEA3AEA4AE250E488
:102580000E941702DC01CB01898B9A8BAB8BBC8B31
:1025900069897A898B899C8920E030E040E85FE393
:1025A0000E941D0488231CF481E0888B91C06989F6
:1025B0007A898B899C8920E030E04FE753E40E94C0
:1025C000BD0318160CF07BC06D897E898F89988DAC
:1025D00020E030E04AE754E40E941103DC01CB0123
:1025E0008C879D87AE87BF876C857D858E859F850F
:1025F00020E030E04AEF54E40E941702DC01CB01F6
:1026000088879987AA87BB87688579858A859B850E
:1026100020E030E040E85FE30E941D0488232CF4B2
:1026200081E090E09F838E833FC0688579858A85AD
:102630009B8520E03FEF4FE757E40E94BD0318164B
:102640004CF56C857D858E859F8520E030E040E2ED
:1026500051E40E941702DC01CB01BC01CD010E94B4
:102660004100DC01CB019F838E830FC088EC90E09A
:102670009D838C838C819D810197F1F79D838C8351
:102680008E819F8101979F838E838E819F8100978A
:1026900069F724C0688579858A859B850E944100F9
:1026A000DC01CB019F838E838E819F819B838A83F4
:1026B0008A819B810197F1F79B838A830FC0698987
:1026C0007A898B899C890E944100DC01CB01888B2F
:1026D0008889898389818A95F1F78983CC53DF4F73
:1026E0000FB6F894DEBF0FBECDBFCF91DF911F9123
:1026F0000F910895DF93CF9300D0CDB7DEB79A83C3
:1027000089830AC0E981FA8180810E9492088981C7
:102710009A8101969A838983E981FA81808188234D
:1027200089F70F900F90CF91DF910895DF93CF93AA
:1027300000D000D0CDB7DEB789836A838981282F86
:1027400030E03C832B838B819C8181309105D1F0DB
:102750002B813C81223031052CF48B819C810097A8
:1027600061F01EC02B813C812230310581F08B81CC
:102770009C818330910581F013C08A8180580E942A
:1027800047060EC08A8180540E94470609C08A818C
:102790008C560E94470604C08A818C520E944706CC
:1027A0000F900F900F900F90CF91DF910895DF93CE
:1027B000CF93CDB7DEB727970FB6F894DEBF0FBE25
:1027C000CDBF9C838B836D834E832F831A821982A6
:1027D0008D81882F90E0880F991F880F991F880F8F
:1027E000991F8A838A81805C0E94470619820EC0E5
:1027F0008981282F30E08B819C81FC01E20FF31F3F
:1028000080810E94920889818F5F898389818830C5
:1028100078F38E816F810E9496138B819C810E9438
:10282000920827960FB6F894DEBF0FBECDBFCF91AA
:10283000DF910895DF93CF93CDB7DEB72E970FB614
:10284000F894DEBF0FBECDBF9E878D871A82198296
:102850008D859E85009711F580E30E94920839C00E
:102860008A81E82FF0E08D859E852AE030E0B9016D
:102870000E946319282F205DCE010396E80FF91FEF
:1028800020838D859E852AE030E0B9010E9463197E
:10289000CB019E878D878A818F5F8A838D859E85F8
:1028A0000097F1F68A81898311C08981882F90E091
:1028B0009C0121503040CE010396FC01E20FF31F32
:1028C00080810E949208898181508983898188232F
:1028D00061F72E960FB6F894DEBF0FBECDBFCF9135
:1028E000DF910895DF93CF93CDB7DEB727970FB66B
:1028F000F894DEBF0FBECDBF89836A834B838A8184
:10290000883008F0EAC08B81813009F06FC089817E
:10291000282F30E03F832E838E819F818130910567
:1029200049F12E813F81223031052CF48E819F8127
:10293000009761F0D2C02E813F812230310571F1C4
:102940008E819F8183309105E9F1C7C0AAE3B0E091
:10295000EAE3F0E08081482F8A81282F30E081E08F
:1029600090E0022E02C0880F991F0A94E2F7842B90
:102970008C93B3C0A7E3B0E0E7E3F0E08081482F99
:102980008A81282F30E081E090E0022E02C0880F7B
:10299000991F0A94E2F7842B8C939FC0A4E3B0E0C4
:1029A000E4E3F0E08081482F8A81282F30E081E045
:1029B00090E0022E02C0880F991F0A94E2F7842B40
:1029C0008C938BC0A1E3B0E0E1E3F0E08081482F7D
:1029D0008A81282F30E081E090E0022E02C0880F2B
:1029E000991F0A94E2F7842B8C9377C08B818823FC
:1029F00009F073C08981282F30E03D832C838C81BE
:102A00009D818130910559F12C813D812230310524
:102A10002CF48C819D81009769F05FC02C813D81F1
:102A20002230310589F18C819D818330910509F433
:102A300040C053C0AAE3B0E0EAE3F0E08081482F51
:102A40008A81282F30E081E090E0022E02C0880FBA
:102A5000991F0A94E2F7809584238C933EC0A7E3E4
:102A6000B0E0E7E3F0E08081482F8A81282F30E052
:102A700081E090E0022E02C0880F991F0A94E2F7CD
:102A8000809584238C9329C0A4E3B0E0E4E3F0E0D4
:102A90008081482F8A81282F30E081E090E0022E4B
:102AA00002C0880F991F0A94E2F7809584238C93C3
:102AB00014C0A1E3B0E0E1E3F0E08081482F8A8117
:102AC000282F30E081E090E0022E02C0880F991F8D
:102AD0000A94E2F7809584238C9327960FB6F89496
:102AE000DEBF0FBECDBFCF91DF910895DF93CF93AF
:102AF000CDB7DEB727970FB6F894DEBF0FBECDBFB8
:102B000089836A834B838A81883008F0EEC08B8189
:102B1000813009F06FC08981282F30E03F832E83F8
:102B20008E819F818130910549F12E813F81223034
:102B300031052CF48E819F81009761F0D6C02E81E3
:102B40003F812230310571F18E819F818330910563
:102B5000E9F1CBC0ABE3B0E0EBE3F0E08081482FDC
:102B60008A81282F30E081E090E0022E02C0880F99
:102B7000991F0A94E2F7842B8C93B7C0A8E3B0E0C6
:102B8000E8E3F0E08081482F8A81282F30E081E05F
:102B900090E0022E02C0880F991F0A94E2F7842B5E
:102BA0008C93A3C0A5E3B0E0E5E3F0E08081482F7B
:102BB0008A81282F30E081E090E0022E02C0880F49
:102BC000991F0A94E2F7842B8C938FC0A2E3B0E0A4
:102BD000E2E3F0E08081482F8A81282F30E081E015
:102BE00090E0022E02C0880F991F0A94E2F7842B0E
:102BF0008C937BC08A81883008F077C08B818823D2
:102C000009F073C08981282F30E03D832C838C81AB
:102C10009D818130910559F12C813D812230310512
:102C20002CF48C819D81009769F05FC02C813D81DF
:102C30002230310589F18C819D818330910509F421
:102C400040C053C0ABE3B0E0EBE3F0E08081482F3D
:102C50008A81282F30E081E090E0022E02C0880FA8
:102C6000991F0A94E2F7809584238C933EC0A8E3D1
:102C7000B0E0E8E3F0E08081482F8A81282F30E03F
:102C800081E090E0022E02C0880F991F0A94E2F7BB
:102C9000809584238C9329C0A5E3B0E0E5E3F0E0C0
:102CA0008081482F8A81282F30E081E090E0022E39
:102CB00002C0880F991F0A94E2F7809584238C93B1
:102CC00014C0A2E3B0E0E2E3F0E08081482F8A8103
:102CD000282F30E081E090E0022E02C0880F991F7B
:102CE0000A94E2F7809584238C9327960FB6F89484
:102CF000DEBF0FBECDBFCF91DF910895DF93CF939D
:102D000000D000D000D0CDB7DEB789836A835C8362
:102D10004B838A81883008F070C08981282F30E089
:102D20003E832D834D815E814130510559F18D8166
:102D30009E818230910534F42D813E81211531052B
:102D400069F05BC04D815E814230510579F18D8122
:102D50009E818330910509F43DC04FC0E9E3F0E066
:102D60008081282F30E08A81882F90E0A90102C05D
:102D7000559547958A95E2F7CA018170EB81FC81F0
:102D800080833BC0E6E3F0E08081282F30E08A8139
:102D9000882F90E0A90102C0559547958A95E2F7E2
:102DA000CA018170EB81FC81808327C0E3E3F0E0FE
:102DB0008081282F30E08A81882F90E0A90102C00D
:102DC000559547958A95E2F7CA018170EB81FC81A0
:102DD000808313C0E0E3F0E08081282F30E08A8117
:102DE000882F90E0A90102C0559547958A95E2F792
:102DF000CA018170EB81FC81808326960FB6F8941E
:102E0000DEBF0FBECDBFCF91DF910895DF93CF938B
:102E100000D000D0CDB7DEB789836A838981282F9F
:102E200030E03C832B838B819C818130910549F17B
:102E30002B813C81223031052CF48B819C810097C1
:102E400061F05AC02B813C812230310571F18B81B8
:102E50009C8183309105E9F14FC0ABE3B0E0EBE337
:102E6000F0E08081482F8A81282F30E081E090E0D7
:102E7000022E02C0880F991F0A94E2F784278C93D0
:102E80003BC0A8E3B0E0E8E3F0E08081482F8A810E
:102E9000282F30E081E090E0022E02C0880F991FB9
:102EA0000A94E2F784278C9327C0A5E3B0E0E5E31A
:102EB000F0E08081482F8A81282F30E081E090E087
:102EC000022E02C0880F991F0A94E2F784278C9380
:102ED00013C0A2E3B0E0E2E3F0E08081482F8A81F2
:102EE000282F30E081E090E0022E02C0880F991F69
:102EF0000A94E2F784278C930F900F900F900F9015
:102F0000CF91DF910895DF93CF9300D000D0CDB75C
:102F1000DEB789836A838981282F30E03C832B8345
:102F20008B819C818130910549F12B813C8122303C
:102F300031052CF48B819C81009761F05AC02B8164
:102F40003C812230310571F18B819C818330910568
:102F5000E9F14FC0ABE3B0E0EBE3F0E08081482F54
:102F60008A81282F30E081E090E0022E02C0880F95
:102F7000991F0A94E2F7842B8C933BC0A8E3B0E03E
:102F8000E8E3F0E08081482F8A81282F30E081E05B
:102F900090E0022E02C0880F991F0A94E2F7842B5A
:102FA0008C9327C0A5E3B0E0E5E3F0E08081482FF3
:102FB0008A81282F30E081E090E0022E02C0880F45
:102FC000991F0A94E2F7842B8C9313C0A2E3B0E01C
:102FD000E2E3F0E08081482F8A81282F30E081E011
:102FE00090E0022E02C0880F991F0A94E2F7842B0A
:102FF0008C930F900F900F900F90CF91DF910895C9
:10300000DF93CF9300D000D0CDB7DEB789836A833A
:103010008981282F30E03C832B838B819C818130F8
:103020009105D1F02B813C81223031052CF48B812C
:103030009C81009761F01EC02B813C8122303105BC
:1030400081F08B819C818330910581F013C0EAE38C
:10305000F0E08A8180830EC0E7E3F0E08A8180831C
:1030600009C0E4E3F0E08A81808304C0E1E3F0E09A
:103070008A8180830F900F900F900F90CF91DF91F6
:103080000895DF93CF9300D000D0CDB7DEB789830A
:103090006A838981282F30E03C832B838B819C813C
:1030A00081309105D1F02B813C81223031052CF407
:1030B0008B819C81009761F01EC02B813C81223066
:1030C000310581F08B819C818330910581F013C0A3
:1030D000EBE3F0E08A8180830EC0E8E3F0E08A81D0
:1030E000808309C0E5E3F0E08A81808304C0E2E3E5
:1030F000F0E08A8180830F900F900F900F90CF9116
:10310000DF910895DF93CF9300D000D00F92CDB719
:10311000DEB789837B836A838981282F30E03D83F2
:103120002C838C819D8181309105E1F02C813D8142
:10313000223031052CF48C819D81009761F026C0EE
:103140002C813D8122303105A1F08C819D8183301D
:103150009105B1F01BC0EBE3F0E08081EA81FB81D7
:10316000808314C0E8E3F0E08081EA81FB81808302
:103170000DC0E5E3F0E08081EA81FB81808306C039
:10318000E2E3F0E08081EA81FB8180830F900F9081
:103190000F900F900F90CF91DF910895DF93CF9311
:1031A00000D00F92CDB7DEB789838981282F30E018
:1031B0003B832A838A819B8181309105E9F02A81B2
:1031C0003B81223031052CF48A819B81009761F08C
:1031D0002AC02A813B8122303105B1F08A819B814E
:1031E00083309105C9F01FC0ABE3B0E0EBE3F0E042
:1031F000808180958C9317C0A8E3B0E0E8E3F0E00D
:10320000808180958C930FC0A5E3B0E0E5E3F0E00A
:10321000808180958C9307C0A2E3B0E0E2E3F0E008
:10322000808180958C930F900F900F90CF91DF91BC
:103230000895DF93CF9300D00F92CDB7DEB7898387
:103240008981282F30E03B832A838A819B818130CA
:103250009105D1F02A813B81223031052CF48A81FD
:103260009B81009761F01EC02A813B81223031058D
:1032700081F08A819B818330910581F013C0EBE35B
:10328000F0E08FEF80830EC0E8E3F0E08FEF808303
:1032900009C0E5E3F0E08FEF808304C0E2E3F0E0F3
:1032A0008FEF80830F900F900F90CF91DF91089553
:1032B000DF93CF93CDB7DEB70E94D80A87ED90E0B9
:1032C0000E941A14FFCFAA1BBB1B51E107C0AA1F03
:1032D000BB1FA617B70710F0A61BB70B881F991FB7
:1032E0005A95A9F780959095BC01CD0108952F922C
:1032F0003F924F925F926F927F928F929F92AF9286
:10330000BF92CF92DF92EF92FF920F931F93CF93D2
:10331000DF93CDB7DEB7CA1BDB0B0FB6F894DEBF69
:103320000FBECDBF09942A88398848885F846E848F
:103330007D848C849B84AA84B984C884DF80EE80D9
:10334000FD800C811B81AA81B981CE0FD11D0FB6E2
:10335000F894DEBF0FBECDBFED010895F894FFCF06
:08336000000000000000000065
:00000001FF
