:100000000C942A000C94F4050C9404060C94370606
:100010000C943C000C943C000C943C000C943C0070
:100020000C943C000C943C000C943C000C943C0060
:100030000C943C000C943C000C943C000C943C0050
:100040000C943C000C943C000C943C000C943C0040
:100050000C943C0011241FBECFE5D8E0DEBFCDBF1D
:1000600010E0A0E6B0E001C01D92A236B107E1F7B2
:100070000E9463060C9487060C940000DF93CF93D4
:10008000CDB7DEB727970FB6F894DEBF0FBECDBF52
:1000900089836A834B838A81883008F0EAC08B8128
:1000A000813009F06FC08981282F30E03F832E8393
:1000B0008E819F818130910549F12E813F812230CF
:1000C00031052CF48E819F81009761F0D2C02E8182
:1000D0003F812230310571F18E819F8183309105FE
:1000E000E9F1C7C0AAE3B0E0EAE3F0E08081482F7D
:1000F0008A81282F30E081E090E0022E02C0880F34
:10010000991F0A94E2F7842B8C93B3C0A7E3B0E065
:10011000E7E3F0E08081482F8A81282F30E081E0FA
:1001200090E0022E02C0880F991F0A94E2F7842BF8
:100130008C939FC0A4E3B0E0E4E3F0E08081482F1B
:100140008A81282F30E081E090E0022E02C0880FE3
:10015000991F0A94E2F7842B8C938BC0A1E3B0E043
:10016000E1E3F0E08081482F8A81282F30E081E0B0
:1001700090E0022E02C0880F991F0A94E2F7842BA8
:100180008C9377C08B81882309F073C08981282FD5
:1001900030E03D832C838C819D818130910559F124
:1001A0002C813D81223031052CF48C819D8100977A
:1001B00069F05FC02C813D812230310589F18C814D
:1001C0009D818330910509F440C053C0AAE3B0E09B
:1001D000EAE3F0E08081482F8A81282F30E081E037
:1001E00090E0022E02C0880F991F0A94E2F78095D2
:1001F00084238C933EC0A7E3B0E0E7E3F0E0808186
:10020000482F8A81282F30E081E090E0022E02C042
:10021000880F991F0A94E2F7809584238C9329C054
:10022000A4E3B0E0E4E3F0E08081482F8A81282F46
:1002300030E081E090E0022E02C0880F991F0A94FE
:10024000E2F7809584238C9314C0A1E3B0E0E1E34E
:10025000F0E08081482F8A81282F30E081E090E013
:10026000022E02C0880F991F0A94E2F7809584231A
:100270008C9327960FB6F894DEBF0FBECDBFCF91FB
:10028000DF910895DF93CF93CDB7DEB727970FB6F1
:10029000F894DEBF0FBECDBF89836A834B838A810A
:1002A000883008F0EEC08B81813009F06FC0898101
:1002B000282F30E03F832E838E819F8181309105EE
:1002C00049F12E813F81223031052CF48E819F81AE
:1002D000009761F0D6C02E813F812230310571F147
:1002E0008E819F8183309105E9F1CBC0ABE3B0E013
:1002F000EBE3F0E08081482F8A81282F30E081E015
:1003000090E0022E02C0880F991F0A94E2F7842B16
:100310008C93B7C0A8E3B0E0E8E3F0E08081482F19
:100320008A81282F30E081E090E0022E02C0880F01
:10033000991F0A94E2F7842B8C93A3C0A5E3B0E045
:10034000E5E3F0E08081482F8A81282F30E081E0CA
:1003500090E0022E02C0880F991F0A94E2F7842BC6
:100360008C938FC0A2E3B0E0E2E3F0E08081482FFD
:100370008A81282F30E081E090E0022E02C0880FB1
:10038000991F0A94E2F7842B8C937BC08A81883072
:1003900008F077C08B81882309F073C08981282FEA
:1003A00030E03D832C838C819D818130910559F112
:1003B0002C813D81223031052CF48C819D81009768
:1003C00069F05FC02C813D812230310589F18C813B
:1003D0009D818330910509F440C053C0ABE3B0E088
:1003E000EBE3F0E08081482F8A81282F30E081E024
:1003F00090E0022E02C0880F991F0A94E2F78095C0
:1004000084238C933EC0A8E3B0E0E8E3F0E0808171
:10041000482F8A81282F30E081E090E0022E02C030
:10042000880F991F0A94E2F7809584238C9329C042
:10043000A5E3B0E0E5E3F0E08081482F8A81282F32
:1004400030E081E090E0022E02C0880F991F0A94EC
:10045000E2F7809584238C9314C0A2E3B0E0E2E33A
:10046000F0E08081482F8A81282F30E081E090E001
:10047000022E02C0880F991F0A94E2F78095842308
:100480008C9327960FB6F894DEBF0FBECDBFCF91E9
:10049000DF910895DF93CF9300D000D000D0CDB787
:1004A000DEB789836A835C834B838A81883008F056
:1004B00070C08981282F30E03E832D834D815E817D
:1004C0004130510559F18D819E818230910534F47E
:1004D0002D813E812115310569F05BC04D815E8122
:1004E0004230510579F18D819E818330910509F467
:1004F0003DC04FC0E9E3F0E08081282F30E08A81E1
:10050000882F90E0A90102C0559547958A95E2F79A
:10051000CA018170EB81FC8180833BC0E6E3F0E09F
:100520008081282F30E08A81882F90E0A90102C0C5
:10053000559547958A95E2F7CA018170EB81FC8158
:10054000808327C0E3E3F0E08081282F30E08A81B8
:10055000882F90E0A90102C0559547958A95E2F74A
:10056000CA018170EB81FC81808313C0E0E3F0E07D
:100570008081282F30E08A81882F90E0A90102C075
:10058000559547958A95E2F7CA018170EB81FC8108
:10059000808326960FB6F894DEBF0FBECDBFCF91F5
:1005A000DF910895DF93CF9300D000D0CDB7DEB7B1
:1005B00089836A838981282F30E03C832B838B8158
:1005C0009C818130910549F12B813C81223031059C
:1005D0002CF48B819C81009761F05AC02B813C8167
:1005E0002230310571F18B819C8183309105E9F1D5
:1005F0004FC0ABE3B0E0EBE3F0E08081482F8A81AD
:10060000282F30E081E090E0022E02C0880F991F71
:100610000A94E2F784278C933BC0A8E3B0E0E8E3B8
:10062000F0E08081482F8A81282F30E081E090E03F
:10063000022E02C0880F991F0A94E2F784278C9338
:1006400027C0A5E3B0E0E5E3F0E08081482F8A8190
:10065000282F30E081E090E0022E02C0880F991F21
:100660000A94E2F784278C9313C0A2E3B0E0E2E39C
:10067000F0E08081482F8A81282F30E081E090E0EF
:10068000022E02C0880F991F0A94E2F784278C93E8
:100690000F900F900F900F90CF91DF910895DF93FF
:1006A000CF9300D000D0CDB7DEB789836A8389812C
:1006B000282F30E03C832B838B819C8181309105F6
:1006C00049F12B813C81223031052CF48B819C81B6
:1006D000009761F05AC02B813C812230310571F1C5
:1006E0008B819C8183309105E9F14FC0ABE3B0E091
:1006F000EBE3F0E08081482F8A81282F30E081E011
:1007000090E0022E02C0880F991F0A94E2F7842B12
:100710008C933BC0A8E3B0E0E8E3F0E08081482F91
:100720008A81282F30E081E090E0022E02C0880FFD
:10073000991F0A94E2F7842B8C9327C0A5E3B0E0BD
:10074000E5E3F0E08081482F8A81282F30E081E0C6
:1007500090E0022E02C0880F991F0A94E2F7842BC2
:100760008C9313C0A2E3B0E0E2E3F0E08081482F75
:100770008A81282F30E081E090E0022E02C0880FAD
:10078000991F0A94E2F7842B8C930F900F900F908F
:100790000F90CF91DF910895DF93CF9300D000D0D9
:1007A000CDB7DEB789836A838981282F30E03C8307
:1007B0002B838B819C8181309105D1F02B813C81F1
:1007C000223031052CF48B819C81009761F01EC092
:1007D0002B813C812230310581F08B819C818330DB
:1007E000910581F013C0EAE3F0E08A8180830EC0B6
:1007F000E7E3F0E08A81808309C0E4E3F0E08A81E6
:10080000808304C0E1E3F0E08A8180830F900F9041
:100810000F900F90CF91DF910895DF93CF9300D089
:1008200000D0CDB7DEB789836A838981282F30E075
:100830003C832B838B819C8181309105D1F02B816E
:100840003C81223031052CF48B819C81009761F032
:100850001EC02B813C812230310581F08B819C812F
:100860008330910581F013C0EBE3F0E08A8180834F
:100870000EC0E8E3F0E08A81808309C0E5E3F0E0A0
:100880008A81808304C0E2E3F0E08A8180830F9054
:100890000F900F900F90CF91DF910895DF93CF933A
:1008A00000D000D00F92CDB7DEB789837B836A83F7
:1008B0008981282F30E03D832C838C819D8181307C
:1008C0009105E1F02C813D81223031052CF48C81A1
:1008D0009D81009761F026C02C813D812230310539
:1008E000A1F08C819D8183309105B1F01BC0EBE3B9
:1008F000F0E08081EA81FB81808314C0E8E3F0E0CE
:100900008081EA81FB8180830DC0E5E3F0E0808196
:10091000EA81FB81808306C0E2E3F0E08081EA8126
:10092000FB8180830F900F900F900F900F90CF91CD
:10093000DF910895DF93CF9300D00F92CDB7DEB74C
:1009400089838981282F30E03B832A838A819B8198
:1009500081309105E9F02A813B81223031052CF468
:100960008A819B81009761F02AC02A813B812230D5
:100970003105B1F08A819B8183309105C9F01FC098
:10098000ABE3B0E0EBE3F0E0808180958C9317C09F
:10099000A8E3B0E0E8E3F0E0808180958C930FC09D
:1009A000A5E3B0E0E5E3F0E0808180958C9307C09B
:1009B000A2E3B0E0E2E3F0E0808180958C930F90B9
:1009C0000F900F90CF91DF910895DF93CF9300D0D8
:1009D0000F92CDB7DEB789838981282F30E03B8322
:1009E0002A838A819B8181309105D1F02A813B81C4
:1009F000223031052CF48A819B81009761F01EC062
:100A00002A813B812230310581F08A819B818330AC
:100A1000910581F013C0EBE3F0E08FEF80830EC00F
:100A2000E8E3F0E08FEF808309C0E5E3F0E08FEFCB
:100A3000808304C0E2E3F0E08FEF80830F900F909B
:100A40000F90CF91DF910895DF93CF9300D000D026
:100A500000D0CDB7DEB789836A838981282F30E043
:100A60003E832D838D819E81009709F467C02D817F
:100A70003E812130310509F061C08A81282F30E0A4
:100A80003C832B838B819C818130910521F12B81CB
:100A90003C81223031052CF48B819C81009761F0E0
:100AA00046C02B813C812230310521F18B819C8114
:100AB0008330910571F13BC0A5E5B0E0E5E5F0E0DC
:100AC000808188608C93A5E5B0E0E5E5F0E0808169
:100AD00084608C932CC0A5E5B0E0E5E5F0E0808172
:100AE00088608C93A5E5B0E0E5E5F0E080818B7F40
:100AF0008C931DC0A5E5B0E0E5E5F0E08081877F3F
:100B00008C93A5E5B0E0E5E5F0E080818B7F8C93E8
:100B10000EC0A5E5B0E0E5E5F0E08081877F8C932D
:100B2000A5E5B0E0E5E5F0E0808184608C93ABE57D
:100B3000B0E0EBE5F0E0808180688C9326960FB6FC
:100B4000F894DEBF0FBECDBFCF91DF910895DF9344
:100B5000CF9300D00F92CDB7DEB789838981282F3C
:100B600030E03B832A838A819B818130910589F023
:100B70002A813B8122303105A1F08A819B81009737
:100B8000B9F4ABE5B0E0EBE5F0E080818F7B8C93CE
:100B90000FC0ABE5B0E0EBE5F0E080818F778C93A0
:100BA00007C0ABE5B0E0EBE5F0E080818F7D8C9392
:100BB0000F900F900F90CF91DF910895DF93CF9317
:100BC00000D0CDB7DEB79A83898389819A81009757
:100BD00031F089819A8190936100809360000F9039
:100BE0000F90CF91DF9108951F920F920FB60F9241
:100BF0001124DF93CF93CDB7DEB7CF91DF910F9064
:100C00000FBE0F901F9018951F920F920FB60F9264
:100C100011242F933F934F935F936F937F938F9301
:100C20009F93AF93BF93EF93FF93DF93CF93CDB792
:100C3000DEB78091600090916100009729F0E0910B
:100C40006000F09161000995CF91DF91FF91EF91E4
:100C5000BF91AF919F918F917F916F915F914F91D4
:100C60003F912F910F900FBE0F901F9018951F92DC
:100C70000F920FB60F921124DF93CF93CDB7DEB74B
:100C8000CF91DF910F900FBE0F901F901895DF93BB
:100C9000CF93CDB7DEB7AFE5B0E0EFE5F0E0808110
:100CA00080688C93CF91DF910895DF93CF93CDB778
:100CB000DEB7AFE5B0E0EFE5F0E080818F778C93B1
:100CC000CF91DF910895DF93CF93CDB7DEB783E067
:100CD00063E040E00E943E0080E064E041E00E946A
:100CE0003E008CE796E00E94DE050E94470681E008
:100CF00061E00E942405FFCFDF93CF93CDB7DEB72D
:100D000080E064E00E94D202CF91DF910895F894D0
:020D1000FFCF13
:00000001FF
