:100000000C942A000C9434000C9434000C943400AA
:100010000C9434000C9434000C9434000C94340090
:100020000C9434000C9434000C9434000C94340080
:100030000C9434000C9434000C9434000C94340070
:100040000C9434000C9434000C9434000C94340060
:100050000C94340011241FBECFE5D8E0DEBFCDBF25
:100060000E94FF030C943B040C940000DF93CF9399
:10007000CDB7DEB727970FB6F894DEBF0FBECDBF62
:1000800089836A834B838A81883008F0EAC08B8138
:10009000813009F06FC08981282F30E03F832E83A3
:1000A0008E819F818130910549F12E813F812230DF
:1000B00031052CF48E819F81009761F0D2C02E8192
:1000C0003F812230310571F18E819F81833091050E
:1000D000E9F1C7C0AAE3B0E0EAE3F0E08081482F8D
:1000E0008A81282F30E081E090E0022E02C0880F44
:1000F000991F0A94E2F7842B8C93B3C0A7E3B0E076
:10010000E7E3F0E08081482F8A81282F30E081E00A
:1001100090E0022E02C0880F991F0A94E2F7842B08
:100120008C939FC0A4E3B0E0E4E3F0E08081482F2B
:100130008A81282F30E081E090E0022E02C0880FF3
:10014000991F0A94E2F7842B8C938BC0A1E3B0E053
:10015000E1E3F0E08081482F8A81282F30E081E0C0
:1001600090E0022E02C0880F991F0A94E2F7842BB8
:100170008C9377C08B81882309F073C08981282FE5
:1001800030E03D832C838C819D818130910559F134
:100190002C813D81223031052CF48C819D8100978A
:1001A00069F05FC02C813D812230310589F18C815D
:1001B0009D818330910509F440C053C0AAE3B0E0AB
:1001C000EAE3F0E08081482F8A81282F30E081E047
:1001D00090E0022E02C0880F991F0A94E2F78095E2
:1001E00084238C933EC0A7E3B0E0E7E3F0E0808196
:1001F000482F8A81282F30E081E090E0022E02C053
:10020000880F991F0A94E2F7809584238C9329C064
:10021000A4E3B0E0E4E3F0E08081482F8A81282F56
:1002200030E081E090E0022E02C0880F991F0A940E
:10023000E2F7809584238C9314C0A1E3B0E0E1E35E
:10024000F0E08081482F8A81282F30E081E090E023
:10025000022E02C0880F991F0A94E2F7809584232A
:100260008C9327960FB6F894DEBF0FBECDBFCF910B
:10027000DF910895DF93CF93CDB7DEB727970FB601
:10028000F894DEBF0FBECDBF89836A834B838A811A
:10029000883008F0EEC08B81813009F06FC0898111
:1002A000282F30E03F832E838E819F8181309105FE
:1002B00049F12E813F81223031052CF48E819F81BE
:1002C000009761F0D6C02E813F812230310571F157
:1002D0008E819F8183309105E9F1CBC0ABE3B0E023
:1002E000EBE3F0E08081482F8A81282F30E081E025
:1002F00090E0022E02C0880F991F0A94E2F7842B27
:100300008C93B7C0A8E3B0E0E8E3F0E08081482F29
:100310008A81282F30E081E090E0022E02C0880F11
:10032000991F0A94E2F7842B8C93A3C0A5E3B0E055
:10033000E5E3F0E08081482F8A81282F30E081E0DA
:1003400090E0022E02C0880F991F0A94E2F7842BD6
:100350008C938FC0A2E3B0E0E2E3F0E08081482F0D
:100360008A81282F30E081E090E0022E02C0880FC1
:10037000991F0A94E2F7842B8C937BC08A81883082
:1003800008F077C08B81882309F073C08981282FFA
:1003900030E03D832C838C819D818130910559F122
:1003A0002C813D81223031052CF48C819D81009778
:1003B00069F05FC02C813D812230310589F18C814B
:1003C0009D818330910509F440C053C0ABE3B0E098
:1003D000EBE3F0E08081482F8A81282F30E081E034
:1003E00090E0022E02C0880F991F0A94E2F78095D0
:1003F00084238C933EC0A8E3B0E0E8E3F0E0808182
:10040000482F8A81282F30E081E090E0022E02C040
:10041000880F991F0A94E2F7809584238C9329C052
:10042000A5E3B0E0E5E3F0E08081482F8A81282F42
:1004300030E081E090E0022E02C0880F991F0A94FC
:10044000E2F7809584238C9314C0A2E3B0E0E2E34A
:10045000F0E08081482F8A81282F30E081E090E011
:10046000022E02C0880F991F0A94E2F78095842318
:100470008C9327960FB6F894DEBF0FBECDBFCF91F9
:10048000DF910895DF93CF9300D000D000D0CDB797
:10049000DEB789836A835C834B838A81883008F066
:1004A00070C08981282F30E03E832D834D815E818D
:1004B0004130510559F18D819E818230910534F48E
:1004C0002D813E812115310569F05BC04D815E8132
:1004D0004230510579F18D819E818330910509F477
:1004E0003DC04FC0E9E3F0E08081282F30E08A81F1
:1004F000882F90E0A90102C0559547958A95E2F7AB
:10050000CA018170EB81FC8180833BC0E6E3F0E0AF
:100510008081282F30E08A81882F90E0A90102C0D5
:10052000559547958A95E2F7CA018170EB81FC8168
:10053000808327C0E3E3F0E08081282F30E08A81C8
:10054000882F90E0A90102C0559547958A95E2F75A
:10055000CA018170EB81FC81808313C0E0E3F0E08D
:100560008081282F30E08A81882F90E0A90102C085
:10057000559547958A95E2F7CA018170EB81FC8118
:10058000808326960FB6F894DEBF0FBECDBFCF9105
:10059000DF910895DF93CF9300D000D0CDB7DEB7C1
:1005A00089836A838981282F30E03C832B838B8168
:1005B0009C818130910549F12B813C8122303105AC
:1005C0002CF48B819C81009761F05AC02B813C8177
:1005D0002230310571F18B819C8183309105E9F1E5
:1005E0004FC0ABE3B0E0EBE3F0E08081482F8A81BD
:1005F000282F30E081E090E0022E02C0880F991F82
:100600000A94E2F784278C933BC0A8E3B0E0E8E3C8
:10061000F0E08081482F8A81282F30E081E090E04F
:10062000022E02C0880F991F0A94E2F784278C9348
:1006300027C0A5E3B0E0E5E3F0E08081482F8A81A0
:10064000282F30E081E090E0022E02C0880F991F31
:100650000A94E2F784278C9313C0A2E3B0E0E2E3AC
:10066000F0E08081482F8A81282F30E081E090E0FF
:10067000022E02C0880F991F0A94E2F784278C93F8
:100680000F900F900F900F90CF91DF910895DF930F
:10069000CF9300D000D0CDB7DEB789836A8389813C
:1006A000282F30E03C832B838B819C818130910506
:1006B00049F12B813C81223031052CF48B819C81C6
:1006C000009761F05AC02B813C812230310571F1D5
:1006D0008B819C8183309105E9F14FC0ABE3B0E0A1
:1006E000EBE3F0E08081482F8A81282F30E081E021
:1006F00090E0022E02C0880F991F0A94E2F7842B23
:100700008C933BC0A8E3B0E0E8E3F0E08081482FA1
:100710008A81282F30E081E090E0022E02C0880F0D
:10072000991F0A94E2F7842B8C9327C0A5E3B0E0CD
:10073000E5E3F0E08081482F8A81282F30E081E0D6
:1007400090E0022E02C0880F991F0A94E2F7842BD2
:100750008C9313C0A2E3B0E0E2E3F0E08081482F85
:100760008A81282F30E081E090E0022E02C0880FBD
:10077000991F0A94E2F7842B8C930F900F900F909F
:100780000F90CF91DF910895DF93CF9300D0CDB735
:10079000DEB789836A830F900F90CF91DF91089520
:1007A000DF93CF9300D0CDB7DEB789836A830F90F4
:1007B0000F90CF91DF910895DF93CF9300D00F92E8
:1007C000CDB7DEB789837B836A830F900F900F903C
:1007D000CF91DF910895DF93CF930F92CDB7DEB71E
:1007E00089830F90CF91DF910895DF93CF930F927C
:1007F000CDB7DEB789830F90CF91DF910895DF9356
:10080000CF930F92CDB7DEB780E066E041E00E9463
:10081000360080E065E041E00E94360083E067E05A
:100820000E94470383E067E041E00E943A0183E0D1
:1008300067E09E012F5F3F4FA9010E94420289811C
:10084000882359F480E066E041E00E943A0180E0AC
:1008500065E040E00E943A01E5CF8981882311F3E9
:1008600080E066E040E00E943A0180E065E041E01F
:0A0870000E943A01D7CFF894FFCFA1
:00000001FF
